S00F00005072656C6162342E737265638B
S11300000C9434000C9446000C9446000C94460066
S11300100C9469000C9446000C9446000C94460021
S11300200C9446000C9446000C9446000C94460034
S11300300C9446000C9446000C9446000C94460024
S11300400C9446000C9446000C9446000C94460014
S11300500C9446000C9446000C9446000C94460004
S11300600C9446000C94460011241FBECFEFD8E038
S1130070DEBFCDBF21E0A0E0B1E001C01D92A230FF
S1130080B207E1F70E9463000C9487000C9400000F
S1130090F8941092C1008FEF8AB98FE084B987B9C0
S11300A01BB815B880E388B9E8E6F0E08081826087
S11300B08083ECE6F0E080818061808380818062CF
S11300C08083789408950E944800809100018BB940
S11300D0FCCF1F920F920FB60F9211248F9386B10B
S11300E080930101803131F4809100018F5F80930E
S11300F0000107C0803229F480910001815080936F
S113010000018F910F900FBE0F901F901895F894D7
S1050110FFCF1B
S9030000FC
