S00F00005072656C6162342E737265638B
S11300000C9434000C9446000C9446000C94460066
S11300100C9490000C9446000C9446000C944600FA
S11300200C9446000C9446000C9446000C94460034
S11300300C9446000C9446000C94AB000C944600BF
S11300400C9446000C9446000C9446000C94460014
S11300500C9446000C9446000C9446000C94460004
S11300600C9446000C94460011241FBECFEFD8E038
S1130070DEBFCDBF21E0A0E0B1E001C01D92A530FC
S1130080B207E1F70E9488000C94CD000C940000A4
S1130090F8941092C1008FEF8AB98FE084B987B9C0
S11300A01BB815B880E388B9E8E6F0E08081826087
S11300B08083ECE6F0E080818061808380818062CF
S11300C0808384B5826084BD85B5856085BD8CE9F7
S11300D087BDEEE6F0E080818D7F8083789408957B
S11300E080910301982F9F7090930201807F282FA5
S11300F022952F70822B8093010188B1807F982BE9
S113010098B985B1807F90910101892B85B90895B3
S11301100E944800809103018BB90E947000FACFBD
S11301201F920F920FB60F9211248F93349906C029
S1130130809103018F5F8093030107C0359905C047
S1130140809103018150809303018F910F900FBE22
S11301500F901F9018951F920F920FB60F921124B3
S11301608F93EF93FF93809100018F5F8093000141
S11301708A3059F41092000186B18073809304018F
S1130180EEE6F0E080818D7F8083FF91EF918F9187
S11101900F900FBE0F901F901895F894FFCF9C
S9030000FC
