:020000020000FC
:100000000FEF0DBF18E01EBF3F065B4F666D7D070B
:100010007F6F777C395E797100E00093C1000093B7
:10002000C2000FEF0AB90FE107B900E004B90FEF02
:1000300005B900E0102F402F48B905E005BD552750
:1000400003D008D01DD0FCCFE8E0F0E0E10F249110
:100050002BB90895189B04C0199B08C03327089535
:1000600030FD0895316013951F70089531FD089596
:1000700032601A951F3F19F41FE01F70089508950C
:10008000A89B089501E005BB53955D3371F4552796
:1000900043954F70712F01E0700F471721F400E076
:0C00A000402F403001F048B90895089549
:00000001FF
