:020000020000FC
:040000000C94270035
:040010000C94C80183
:100038000C94EB013F065B4F666D7D077F6F08E010
:100048000EBF0FEF0DBFF89400E80093610002E0C7
:100058000093610000E00093C1000093C20002E039
:1000680004BD04E005BD0AE007BD02E000936E0090
:100078000FEF0AB90FEF04B908E307B907E008B9A9
:1000880007E000936C0002E0009368001127332713
:1000980044275527662777278827992701E0009363
:1000A800000100930201009304010093050100E0A0
:1000B80000930101009303010093070100930801D5
:1000C80078940E94EF000E947C000E94AE000E947B
:1000D80015010E948F010E947200F3CF4398449843
:1000E800459810FD439A11FD449A12FD459A0895CA
:1000F80000910401F09006010F1559F501E00093F5
:1001080004010093000100270093010100910501FB
:100118000395009305010091020103950A3099F4B3
:10012800002700930201009103010395F090050157
:100138000F1561F401E00093020100930501002707
:100148000093030106C00093020103C0009303015A
:1001580000C0089500910701083119F500270093A0
:1001680007017727882755276627009104010395FB
:10017800009304010091000103950A3061F40027FF
:10018800009300010091010103950A3039F400271A
:100198000093010106C00093000103C00093010110
:1001A80000C04C33B9F4442753955A3099F4552775
:1001B8006395663079F46627739500910701039576
:1001C800009307017A3031F4772783958A3011F448
:1001D800882700C00895009105010130B1F0023070
:1001E800C1F0033091F00430C1F0053071F00630F1
:1001F800A1F0073051F0083041F0093071F00A30B1
:1002080021F00B3051F00B3001F000E200930601B1
:1002180008950DE10093060108950FE1009306018A
:100228000895103009F00DC0052F00930C01062F1A
:1002380000930D01072F00930E01082F00930F0163
:1002480069C0113011F00C943A0100910201009339
:100258000C010091030100930D010091000100932E
:100268000E010091010100930F0154C0123011F0EA
:100278000C944B01052F00930C01062F00930D01E0
:100288000AE000930E010AE000930F0143C0133007
:1002980011F00C945C010AE000930C010AE0009351
:1002A8000D01072F00930E01082F00930F0132C094
:1002B800143011F00C946F010091000100930C01AF
:1002C8000091010100930D010AE000930E010AE07C
:1002D80000930F011FC0153011F00C9482010AE041
:1002E80000930C010AE000930D01009102010093B4
:1002F8000E010091030100930F010CC0163011F09C
:100308000C94870107C0173011F00C948E0102C0BD
:100318000C948E010895903031F0913081F0923034
:10032800D1F0933021F1289829982A982B98009198
:100338000C01ECE3F0E0E00F04910BB92B9A28983C
:1003480029982A982B9800910D01ECE3F0E0E00F32
:1003580004910BB92A9A289829982A982B980091E1
:100368000E01ECE3F0E0E00F04910BB9299A28980C
:1003780029982A982B9800910F01ECE3F0E0E00F00
:1003880004910BB9289A0895309B13951770103073
:1003980079F0113071F0123069F0133091F01430A7
:1003A80089F0153081F0163079F0173071F00EC0F1
:1003B8000DC00CC0319B01E0329B02E000930801A4
:1003C80005C004C003C002C001C000C018959395C1
:1003D800943009F499273395353011F43327439530
:0203E800189566
:00000001FF
