:020000020000FC
:040000000C94270035
:040010000C948301C8
:100038000C9491013F065B4F666D7D077F6F08E06A
:100048000EBF0FEF0DBFF89400E80093610002E0C7
:100058000093610000E00093C1000093C20002E039
:1000680004BD04E005BD05E007BD02E000936E0095
:100078000FEF0AB90FEF04B908E307B907E008B9A9
:1000880007E000936C0002E0009368001127332713
:1000980044275527662777278827992701E0009363
:1000A800000100930201009304010093050100E0A0
:1000B80000930101009303010093070100930801D5
:1000C80078940E94EF000E947C000E94AE000E947B
:1000D80015010E943D010E947200F3CF4398449895
:1000E800459810FD439A11FD449A12FD459A0895CA
:1000F80000910401F09006010F1559F501E00093F5
:1001080004010093000100270093010100910501FB
:100118000395009305010091020103950A3099F4B3
:10012800002700930201009103010395F090050157
:100138000F1561F401E00093020100930501002707
:100148000093030106C00093020103C0009303015A
:1001580000C0089500910701083119F500270093A0
:1001680007017727882755276627009104010395FB
:10017800009304010091000103950A3061F40027FF
:10018800009300010091010103950A3039F400271A
:100198000093010106C00093000103C00093010110
:1001A80000C04C33B9F4442753955A3099F4552775
:1001B8006395663079F46627739500910701039576
:1001C800009307017A3031F4772783958A3011F448
:1001D800882700C00895009105010130B1F0023070
:1001E800C1F0033091F00430C1F0053071F00630F1
:1001F800A1F0073051F0083041F0093071F00A30B1
:1002080021F00B3051F00B3001F000E200930601B1
:1002180008950DE10093060108950FE1009306018A
:100228000895103031F0113089F0123001F10C943A
:100238003C01052F00930C01062F00930D01072F99
:1002480000930E01082F00930F0112C000910001C6
:1002580000930C010091010100930D01009102012E
:1002680000930E010091030100930F0101C000C02B
:100278000895903031F0913081F09230D1F0933080
:1002880021F1289829982A982B9800910C01ECE3E1
:10029800F0E0E00F04910BB92B9A289829982A9836
:1002A8002B9800910D01ECE3F0E0E00F04910BB9FD
:1002B8002A9A289829982A982B9800910E01ECE3FD
:1002C800F0E0E00F04910BB9299A289829982A9808
:1002D8002B9800910F01ECE3F0E0E00F04910BB9CB
:1002E800289A089553950027009308010C948201D9
:1002F8005A950027009308010C9482010895309BB9
:1003080013951770103029F0113021F0123019F0C0
:1003180003C002C001C000C018959395943009F439
:0E03280099273395353011F4332743951895F6
:00000001FF
