:020000020000FC
:040000000C94270035
:040010000C94F40058
:100038000C94FF003F065B4F666D7D077F6F08E0FD
:100048000EBF0FEF0DBFF89400E80093610002E0C7
:100058000093610000E00093C1000093C20002E039
:1000680004BD04E005BD01E007BD02E000936E0099
:100078000FEF0AB90FEF04B908E307B907E008B9A9
:1000880007E000936C0002E0009368001127332713
:1000980044275527662777278827992701E0009363
:1000A8000001009302010093040100E000930101A4
:1000B800009303010093060178940E9474000E9443
:1000C80099000E94BB000E946A00F7CF43984498A9
:1000D800459810FD439A11FD449A12FD459A0895DA
:1000E80000910601083139F40027009306017727AB
:1000F8008827552766274C33B9F4442753955A3037
:1001080099F455276395663079F4662773950091BD
:1001180006010395009306017A3031F47727839519
:100128008A3011F4882700C00895103021F011306A
:1001380079F00C94BA00052F00930701062F00935D
:100148000801072F00930901082F00930A010EC028
:1001580000E00093070101E00093080102E000932A
:1001680009010091060100930A0100C0089590302A
:1001780031F0913081F09230D1F0933021F128980C
:1001880029982A982B9800910701ECE3F0E0E00FFA
:1001980004910BB92B9A289829982A982B980091A2
:1001A8000801ECE3F0E0E00F04910BB92A9A2898D3
:1001B80029982A982B9800910901ECE3F0E0E00FC8
:1001C80004910BB9299A289829982A982B98009174
:1001D8000A01ECE3F0E0E00F04910BB9289A0895C6
:1001E800309B13951770103019F0113011F002C0C0
:1001F80001C000C018959395943009F49927339558
:0A020800313011F4332743951895A7
:00000001FF
