:020000020000FC
:040000000C94270035
:040010000C949200BA
:100038000C949D003F065B4F666D7D077F6F08E05F
:100048000EBF0FEF0DBFF89400E80093610002E0C7
:100058000093610000E00093C1000093C20002E039
:1000680004BD04E005BD0CE907BD02E000936E0085
:100078000FEF0AB90FEF04B908E307B907E008B9A9
:1000880007E000936C0002E0009368001127332713
:1000980044275527662777278827992778940E9429
:1000A80064000E947B000E945A00F9CF439844984C
:1000B800459810FD439A11FD449A12FD459A0895FA
:1000C8004C33A1F4442753955A3081F4552763954E
:1000D8006C3361F4662773957A3041F477278395FA
:1000E800823021F4743011F47727882708952898EE
:1000F80029982A982B98903031F0913039F0923025
:1001080039F0933039F02B9A01E00BB92A9A0BB9E0
:10011800299A0BB9289A00E00BB90895309B1395DA
:100128001770103019F0113011F002C001C000C072
:1001380018959395943009F499273395343611F42A
:06014800332743951895D2
:00000001FF
