:100000000C9434000C9451000C9451000C94510049
:100010000C9433010C9451000C9451000C94510039
:100020000C9451000C9451000C9451000C9451000C
:100030000C9451000C9451000C9451000C945100FC
:100040000C9451000C9451000C9451000C945100EC
:100050000C9451000C9451000C9451000C945100DC
:100060000C9451000C94510011241FBECFEFD8E026
:10007000DEBFCDBF11E0A0E0B1E0E2E5F4E002C0F8
:1000800005900D92A239B107D9F721E0A2E9B1E0BC
:1000900001C01D92A639B207E1F70E942E010C940F
:1000A00027020C940000ECE7F0E01082808180646D
:1000B0008083808180628083EAE7F0E01082808123
:1000C000836080838081806880830895893008F010
:1000D00087E0ECE7F0E09081907F8F70892B808340
:1000E000EAE7F0E080818064808380917A0086FD79
:1000F000FCCF809179000895F89487E087B988B1A2
:10010000886088B9E8E6F0E0808182608083ECE670
:10011000F0E08081886080830E94CD010E945300BE
:1001200080E094E00E94460168E371E080E094E0A2
:100130000E948101789408950F931F93CF9387E0D5
:100140000E946600C9E1C89FC00111240FEF10E0B2
:10015000B8010E94FF01625F7F4F70938B00609334
:100160008A0086E00E946600C89FC0011124B80181
:100170000E94FF01625F7F4F709389006093880047
:1001800085E00E946600C89FC0011124B8010E944A
:10019000FF01655F67BD84E00E946600C89FC001E3
:1001A0001124B8010E94FF01655F68BDCF911F91C6
:1001B0000F91089513C080E091E00E94F2018AE15E
:1001C00091E00E94F20183E391E00E94F2018AE44F
:1001D00091E00E94F20181E080939201809192016E
:1001E000882349F30E94E90180939401813319F037
:1001F000823331F00AC087E691E00E94F20108954F
:1002000082E791E00E94F20108958DE791E00E945B
:10021000F201089580919301813069F018F08230E5
:1002200099F019C088B1816088B988B1897F88B98F
:100230000E949C00089588B1826088B988B18A7F45
:1002400088B90E94DA00089588B1846088B988B1BD
:100250008C7F88B908951092930108950E947C00C4
:100260000E940A01FDCF1F920F920FB60F92112428
:100270008F93339905C0809193018F5F8093930191
:100280008F910F900FBE0F901F9018952AB1206686
:100290002AB914BC15BC24B5206824BD24B520623D
:1002A00024BD24B5236024BD25B5277F25BD80341A
:1002B0009105B9F030F48130910559F0089769F053
:1002C0001CC0811521E0920781F08115944089F0CE
:1002D00014C085B5816085BD089585B5826085BDF2
:1002E000089585B5836085BD089585B5846085BD15
:1002F000089585B5856085BD089585B5856085BD02
:10030000089524B1266024B9E0E8F0E01082A1E865
:10031000B0E01C922081206A20832081226020830B
:100320002C9128612C9380349105D9F030F48130E0
:10033000910559F0089779F026C0811521E09207C0
:10034000B1F081159440C9F01EC0E1E8F0E0808171
:10035000816080831DC0E1E8F0E08081826080835D
:1003600017C0E1E8F0E080818360808311C0E1E89C
:10037000F0E08081846080830BC0E1E8F0E0808160
:100380008560808305C0E1E8F0E08081856080833E
:10039000709387006093860008958AB182608AB95D
:1003A0008AB18E7F8AB91092C00088E98093C1001B
:1003B00086E08093C20087E690E09093C50080932A
:1003C000C40008959091C00095FFFCCF8093C600B3
:1003D0000895F8948091C0008823E4F77894809180
:1003E000C6000895CF93DF93EC0103C00E94E201A1
:1003F000219688818111FACFDF91CF91089597FBE3
:10040000072E16F4009407D077FD09D00E9413023E
:1004100007FC05D03EF4909581959F4F0895709507
:1004200061957F4F0895AA1BBB1B51E107C0AA1F0E
:10043000BB1FA617B70710F0A61BB70B881F991F85
:100440005A95A9F780959095BC01CD010895F8942F
:02045000FFCFDC
:10045200200A202D2D2D2D2D4D4F444F2045505239
:100462004F4D2D2D2D2D2D200A0053656C65636394
:10047200696F6E6520756E61206F706369F36E3A05
:10048200200A004755415244415220504F5349439C
:10049200494F4E45533A20310A0056455220504F9B
:1004A200534943494F4E45532047554152444144D5
:1004B20041533A20320A004F5043494F4E203120D7
:1004C2000A004F5043494F4E2032200A00456E76B3
:1004D2006965206F7063696F6E2076616C69646113
:0204E2000A000E
:00000001FF
