:020000020000FC
:040000000C94270035
:040010000C94EA0161
:04001C000C94A0029E
:100038000C949A023F065B4F666D7D077F6F08E060
:100048000EBF0FEF0DBFF89400E80093610002E0C7
:100058000093610000E00093C1000093C20002E039
:1000680004BD04E005BD0CE907BD02E000936E0085
:1000780002E00093B00006E00093B1000EE40093A4
:10008800B30002E0009370000FEF0AB90FE004B963
:1000980008E307B907E008B907E000936C0002E03D
:1000A8000093680044273327002700930101009339
:1000B80000010093020100930301009306010093DD
:1000C8000701009308010093090100930A010093B6
:1000D8000B0100930C0100930D0100930E01009396
:1000E8000F01009310010093110100931301009375
:1000F8001201009314010093150100931601009357
:10010800170101E000930401009305012FE17894A1
:100118000E9499000E94B8000E94E9000E945C01B8
:100128000E94DE010E942401F3CF009100010030FB
:1001380081F0013071F0023081F0033071F0043049
:1001480061F0053051F0063041F0073031F00C9481
:10015800B70002E000936E0006C000E000936E0056
:100168003327442700C008954C3371F54427009184
:10017800020103950C33E1F400270093020100917A
:10018800030103950831B9F4002700930301009196
:1001980004010395021791F401E000930401009112
:1001A800050103950D3069F401E0009305010CC0C9
:1001B8000093020109C00093030106C000930401E3
:1001C80003C00093050100C00895009102010E9438
:1001D8001A015093070160930601009103010E94E0
:1001E8001A015093090160930801009104010E94CB
:1001F8001A0150930B0160930A01009105010E94B6
:100208001A0150930D0160930C0100910E010E9498
:100218001A01509311016093100100910F010E947F
:100228001A01509312016093130109C05527602FDA
:100238007AE0671718F0671B5395FBCF0895089568
:1002480000910101003039F0013079F00230B9F045
:100258000330F9F0089500911401ECE3F0E0E00FA9
:1002680004910BB92B9A0C94570100911501ECE3FA
:10027800F0E0E00F04910BB92A9A0C945701009111
:100288001601ECE3F0E0E00F04910BB9299A0C9405
:10029800570100911701ECE3F0E0E00F04910BB96E
:1002A800289A0C945701289829982A982B980895E9
:1002B80000910001003079F0013071F0023069F0EE
:1002C800033061F0043059F0053051F0063049F040
:1002D800073041F06EC007C017C027C037C047C0FD
:1002E80057C067C066C000910601009314010091D1
:1002F8000701009315010091080100931601009170
:1003080009010093170155C000910C0100931401D5
:1003180000910D010093150100910A010093160147
:1003280000910B010093170144C00091060100934E
:100338001401009107010093150100910801009331
:100348001601009109010093170133C000910601BD
:100358000093140100910701009315010091080111
:1003680000931601009109010093170122C0009122
:100378000C010093140100910D01009315010091E7
:100388000A010093160100910B010093170111C097
:1003980000910C010093140100910D0100931501C7
:1003A80000910A010093160100910B0100931701B7
:1003B80000C008950091000143984498459800FDB5
:1003C800439A01FD449A02FD459A0895009100015F
:1003D800309B0395083019F400270093000100931F
:1003E800000100910001003079F0013069F002301D
:1003F80069F0033061F0043059F0053051F00630EF
:1004080049F0073041F091C008C008C008C01EC0BC
:1004180034C04AC05FC074C088C087C086C000911D
:100428000201319B0395329B0A950C3329F00F3F4B
:1004380039F00093020179C000E00093020175C011
:100448000BE30093020171C00C949902009103011F
:10045800319B0395329B0A95083149F00F3F19F0FB
:100468000093030162C007E1009303015EC000E04E
:10047800009303015AC00C94990200910401319B26
:100488000395329B0A95003029F0021741F000933A
:1004980004014BC0022F009304010C94990201E05F
:1004A8000093040142C041C000910501319B0395AE
:1004B800329B0A95003029F00D3039F00093050180
:1004C80034C00CE00093050130C001E00093050141
:1004D8002CC02BC000910E01319B0395329B0A95CD
:1004E8000C3329F00F3F39F000930E011EC000E0D5
:1004F80000930E011AC00BE300930E0116C015C03D
:1005080000910F01319B0395329B0A95083129F020
:100518000F3F39F000930F0108C000E000930F016E
:1005280004C007E100930F0100C0189533953436D5
:1005380011F4332743951895009101010395043070
:0E05480019F40027009301010093010118959A
:00000001FF
