:020000020000FC
:040000000C94270035
:040010000C944A0200
:04001C000C940C0331
:100038000C9400033F065B4F666D7D077F6F08E0F9
:100048000EBF0FEF0DBFF89400E80093610002E0C7
:100058000093610000E00093C10002E004BD04E0E9
:1000680005BD0CE907BD02E000936E0002E00093B5
:10007800B00006E00093B1000EE40093B30002E084
:10008800009370000FEF0AB90FE304B908E307B94A
:1000980007E008B907E000936C0002E000936800ED
:1000A80044273327002700930101009300010093A0
:1000B80002010093030100930601009307010093D6
:1000C80008010093090100930A0100930B010093B2
:1000D8000C0100930D0100930E0100930F01009392
:1000E8001001009311010093130100931201009372
:1000F8001401009315010093160100931701009352
:1001080018010093190101E000930401009305010F
:100118002FE10CE000930E0100930F0178940E94E8
:1001280029020E94A4000E94C1000E94F4000E94BB
:1001380067010E940B020E942F010E941702EFCF55
:1001480000910001003081F0013071F0023081F03F
:10015800033071F0043061F0053051F0063041F0A1
:10016800073031F00C94C00002E000936E0004C028
:1001780000E000936E0000C008954C3381F54427D9
:10018800009102010395009302010C33E1F400276A
:10019800009302010091030103950831B9F4002787
:1001A80000930301009104010395021791F401E003
:1001B800009304010091050103950D3069F401E0F5
:1001C800009305010CC00093020109C000930301CC
:1001D80006C00093040103C00093050100C0089500
:1001E800009102010E9425015093070160930601C6
:1001F800009103010E9425015093090160930801B1
:10020800009104010E94250150930B0160930A019B
:10021800009105010E94250150930D0160930C0186
:1002280000910E010E942501509311016093100165
:1002380000910F010E942501509312016093130150
:1002480009C05527602F7AE0671718F0671B539588
:10025800FBCF0895089500910101003039F0013075
:1002680079F00230B9F00330F9F0089500911401E3
:10027800ECE3F0E0E00F04910BB92B9A0C946201C7
:1002880000911501ECE3F0E0E00F04910BB92A9A14
:100298000C94620100911601ECE3F0E0E00F049188
:1002A8000BB9299A0C94620100911701ECE3F0E074
:1002B800E00F04910BB9289A0C94620128982998A8
:1002C8002A982B98089500910001003079F00130A8
:1002D80071F0023069F0033061F0043059F00530F4
:1002E80051F0063049F0073041F090C007C017C000
:1002F80027C037C047C057C067C077C00091060104
:100308000093140100910701009315010091080161
:1003180000931601009109010093170177C000911D
:100328000C010093140100910D0100931501009137
:100338000A010093160100910B010093170166C092
:100348000091060100931401009107010093150123
:10035800009108010093160100910901009317010B
:1003680055C0009106010093140100910701009304
:1003780015010091080100931601009109010093ED
:10038800170144C000910C010093140100910D0164
:100398000093150100910A010093160100910B01C9
:1003A8000093170133C000910C01009314010091D0
:1003B8000D010093150100910A01009316010091A7
:1003C8000B010093170122C0009110010093140142
:1003D800009111010093150100911301009316017A
:1003E800009112010093170111C0009110010093B0
:1003F800140100911101009315010091130100935C
:100408001601009112010093170100C00895009190
:10041800000143984498459800FD439A01FD449A89
:1004280002FD459A089500910F0190910301091763
:1004380059F400910E0190910201091729F42D9A9F
:100448000C9428022D9800C00895009105010130F0
:10045800B1F00230C1F0033091F0043091F0053072
:1004680071F0063071F0073051F0083041F0093072
:1004780041F00A3021F00B3021F00C3001F020E27D
:1004880004C02FE102C02DE100C008951FB61F92DD
:100498000F9300910001309B0395083019F4002751
:1004A800009300010093000100910001003079F0F1
:1004B800013069F0023069F0033061F0043059F01E
:1004C800053051F0063049F0073041F091C008C0BE
:1004D80008C008C01EC034C04AC05FC074C088C00D
:1004E80087C086C000910201319B0395329B0A9513
:1004F8000C3329F00F3F39F00093020179C000E076
:100508000093020175C00BE30093020171C00C94C3
:10051800FC0200910301319B0395329B0A95083137
:1005280049F00F3F19F00093030162C007E10093FF
:1005380003015EC000E0009303015AC00C94FC0262
:1005480000910401319B0395329B0A95003029F0F4
:10055800021741F0009304014BC0022F00930401DD
:100568000C94FC0201E00093040142C041C00091D8
:100578000501319B0395329B0A95003029F00D3017
:1005880039F00093050134C00CE00093050130C038
:1005980001E0009305012CC02BC000910E01319B96
:1005A8000395329B0A950C3329F00F3F39F00093DD
:1005B8000E011EC000E000930E011AC00BE3009369
:1005C8000E0116C015C000910F01319B0395329B97
:1005D8000A95083129F00F3F39F000930F0108C040
:1005E80000E000930F0104C007E100930F0100C071
:1005F8000F911F900FBE18951FB61F920F9333953A
:10060800343611F4332743950F911F900FBE189578
:100618001FB61F920F93009118010395043609F431
:100628002C9A00931801083C21F42C980027009379
:100638001801009101010395043019F40027009373
:0E0648000101009301010F911F900FBE189544
:00000001FF
