:100000000C9434000C9451000C9451000C94510049
:100010000C94EE000C9451000C9451000C9451007F
:100020000C9451000C9451000C9451000C9451000C
:100030000C9451000C9451000C9409010C94510043
:100040000C9451000C9451000C9451000C945100EC
:100050000C9451000C9427010C9451000C94510005
:100060000C9451000C94510011241FBECFEFD8E026
:10007000DEBFCDBF11E0A0E0B1E0E4E8F2E002C0F5
:1000800005900D92A031B107D9F721E0A0E1B1E0D0
:1000900001C01D92A531B207E1F70E94DF000C9468
:1000A00040010C940000ECE7F0E010828081806455
:1000B0008083808180628083808186608083EAE79C
:1000C000F0E01082808183608083808188688083F3
:1000D0008081806480830895F8941092C1008FEF2E
:1000E0008AB98FE084B917B81BB815B880E388B90E
:1000F000E8E6F0E0808182608083ECE6F0E08081D9
:100100008061808380818062808384B5826084BDC9
:1001100085B5856085BD8EE487BDEEE6F0E0808123
:10012000826080830E945300789408958091120128
:10013000813071F018F08230A9F01EC085B1887F3F
:1001400085B9809114018BB985B1846085B9089512
:1001500085B1887F85B9809110018BB985B18260A6
:1001600085B9089585B1887F85B9809111018BB9D2
:1001700085B1816085B90895109212010895E82F24
:10018000EF70F0E0E050FF4F9081FA01908382958C
:100190008F70E82FF0E0E050FF4F8081FB018083FB
:1001A00008959091130180911401891720F485B16D
:1001B000886085B9089585B1877F85B908950E94C3
:1001C0006C0040E151E061E171E0809113010E9417
:1001D000BF000E9496000E94D100F3CF1F920F92A1
:1001E0000FB60F9211248F93349906C08091140199
:1001F0008F5F8093140107C0359905C08091140169
:100200008150809314018F910F900FBE0F901F901B
:1002100018951F920F920FB60F9211248F93EF93A0
:10022000FF93EAE7F0E0808180648083809112018F
:100230008F5F80931201833010F010921201FF91B2
:10024000EF918F910F900FBE0F901F9018951F92F6
:100250000F920FB60F9211248F93EF93FF9380911B
:10026000790080931301EAE7F0E080818064808365
:10027000FF91EF918F910F900FBE0F901F901895E7
:04028000F894FFCF20
:100284003F065B4F666D7D077F6F777C395E7971C2
:00000001FF
