:100000000C9434000C9446000C9446000C9446006A
:100010000C9446000C9446000C9446000C94460048
:100020000C9446000C9446000C9446000C94460038
:100030000C9446000C9446000C9446000C94460028
:100040000C9446000C9446000C9446000C94460018
:100050000C9446000C9446000C9446000C94460008
:100060000C9446000C94460011241FBECFEFD8E03C
:10007000DEBFCDBF21E0A0E0B1E001C01D92A23003
:10008000B207E1F70E9472000C9449010C94000041
:1000900080E680937C0086E880937A000895F89447
:1000A00017B80E94480080E094E00E949A0068E33C
:1000B00071E080E094E00E94D50078940895ECE728
:1000C000F0E09081907F8770892B8083EAE7F0E0F1
:1000D00080818064808380917A0086FDFCCF80914E
:1000E000790008950E944F0087E00E945F0080938E
:1000F0000101C9E1C89FC00111240FEF10E0B80150
:100100000E942101655F67BD86E00E945F008093C9
:100110000001C89FC0011124B8010E942101625F43
:100120007F4F709389006093880085E00E945F0094
:1001300088BDDACF2AB120662AB914BC15BC24B513
:10014000206824BD24B5206224BD24B5236024BDCD
:1001500025B5277F25BD80349105B9F030F4813075
:10016000910559F0089769F01CC0811521E09207AC
:1001700081F08115944089F014C085B5816085BDFA
:10018000089585B5826085BD089585B5836085BD78
:10019000089585B5846085BD089585B5856085BD64
:1001A000089585B5856085BD089524B1266024B97C
:1001B000E0E8F0E01082A1E8B0E01C922081206A23
:1001C00020832081226020832C9128612C9380340D
:1001D0009105D9F030F48130910559F0089779F004
:1001E00026C0811521E09207B1F081159440C9F035
:1001F0001EC0E1E8F0E08081816080831DC0E1E8FD
:10020000F0E080818260808317C0E1E8F0E08081C7
:100210008360808311C0E1E8F0E0808184608083A6
:100220000BC0E1E8F0E080818560808305C0E1E8F3
:10023000F0E0808185608083709387006093860002
:10024000089597FB072E16F4009407D077FD09D088
:100250000E94350107FC05D03EF4909581959F4F93
:100260000895709561957F4F0895AA1BBB1B51E1BE
:1002700007C0AA1FBB1FA617B70710F0A61BB70B16
:10028000881F991F5A95A9F780959095BC01CD01BB
:060290000895F894FFCF71
:00000001FF
