S00F00005072656C6162362E7372656389
S11300000C9434000C943E000C943E000C943E007E
S11300100C943E000C943E000C943E000C943E0064
S11300200C943E000C943E000C943E000C943E0054
S11300300C943E000C943E000C943E000C943E0044
S11300400C943E000C943E000C9467000C943E000B
S11300500C943E000C943E000C943E000C943E0024
S11300600C943E000C943E0011241FBECFEFD8E048
S1130070DEBFCDBF0E945B000C9490000C94000086
S1130080F8948FEF84B987B18F7787B978940895FE
S11300908AB182608AB98AB18E7F8AB988E98093ED
S11300A0C10086E08093C20087E690E09093C5008B
S11300B08093C40008950E9440000E944800FFCF2E
S11300C09091C00095FFFCCF8093C60008951F92C5
S11300D00F920FB60F9211242F933F934F935F9378
S11300E06F937F938F939F93AF93BF93EF93FF93FC
S11300F08091C600982F9F7395B90E946000FF916C
S1130100EF91BF91AF919F918F917F916F915F918B
S11301104F913F912F910F900FBE0F901F90189504
S1070120F894FFCF7D
S9030000FC
