S01B000050726F796563746F5F325F76657273696F6E322E737265638C
S11300000C9434000C9451000C9451000C94510045
S11300100C94EA010C9451000C9451000C9451007E
S11300200C9451000C9451000C9451000C94510008
S11300300C9451000C9451000C9451000C945100F8
S11300400C9451000C9451000C94FD010C9451003B
S11300500C9451000C9451000C9451000C945100D8
S11300600C9451000C94510011241FBECFEFD8E022
S1130070DEBFCDBF11E0A0E0B1E0EEE1FCE002C0E4
S113008005900D92A831B107D9F721E0A8E1B1E0BC
S113009001C01D92A833B207E1F70E94D6010C9467
S11300A00D060C94000080E680937C0087E8809322
S11300B07A000895ECE7F0E09081907F8770892BB7
S11300C08083EAE7F0E080818064808380917A0015
S11300D086FDFCCF809179000895861720F048179B
S11300E018F4842F0895862F08958AB180668AB9FA
S11300F083EA84BD85E085BD08959C0194B1966032
S113010094B982EA809380008DE1809381003093DA
S113011087002093860008954FEF60E00E946D00F1
S11301202FE1829FC00111246FEF70E00E94CA0288
S113013088E0860F08954FEF60E00E946D002FE085
S1130140829FC001112481589F4F6FEF70E00E947D
S1130150CA02CB0140960895F89487E087B988B124
S1130160886088B9E8E6F0E0808182608083ECE60C
S1130170F0E08081886080830E9453000E947500B3
S113018088E391E00E947D000E94BE027894089565
S113019087E00E945A000E949B0090938B008093FA
S11301A08A0086E00E945A000E949B009093890076
S11301B08093880085E00E945A000E948C0087BDCD
S11301C084E00E945A000E948C0088BD08950F9319
S11301D01F93CF93DF93C0918A00D0918B00D0936B
S11301E03601C093350180918800909189009093E5
S11301F032018093310187B580932B0188B58093B8
S113020030010091270110912801C8010E94AD0519
S1130210C817D90721F0BE01C8010E94C105C091C9
S11302200401D0910501CE010E94AD056091310118
S1130230709132018617970719F0CE010E94C1050B
S1130240C0910201D0910301CE010E94A5056091E5
S11302502B01861719F0CE010E94B305C09100014D
S1130260D0910101CE010E94A5056091300186174D
S113027019F0CE010E94B305DF91CF911F910F9128
S11302800895CF93DF9380912701909128010E94D4
S1130290AD05EC0190932E0180932D018091040112
S11302A0909105010E94AD05909334018093330130
S11302B080910201909103010E94A505809337016A
S11302C080910001909101010E94A50580932F0166
S11302D0D0938B00C0938A008091330190913401B4
S11302E090938900809388008091370187BD809125
S11302F02F0188BDDF91CF91089580912901882332
S113030089F080912C01813019F0823021F006C0EF
S11303100E94E70005C00E94410102C010922C0116
S1130320109229010895CF93DF93C3E2D1E088812D
S11303300E949B0090938B0080938A0089810E9485
S11303409B0090938900809388008A810E948C008E
S113035087BD8B810E948C0088BDDF91CF91089569
S113036080912A01813069F018F0823099F01BC025
S113037088B1816088B988B1897F88B90E94C80032
S1130380089588B1826088B988B18A7F88B90E944B
S11303907D01089588B1846088B988B18C7F88B95B
S11303A00E949301089510922A0108950E94AC00BE
S11303B00E94B001FDCFFC01892B41F40895909176
S11303C0C00095FFFCCF8093C600319680818111D7
S11303D0F6CF08951F920F920FB60F9211248F93A8
S11303E0339905C080912A018F5F80932A018F91F0
S11303F00F900FBE0F901F9018951F920F920FB67B
S11304000F9211240F931F932F933F934F935F9356
S11304106F937F938F939F93AF93BF93EF93FF93C8
S1130420CF93DF93CDB7DEB76497DEBFCDBF8091A6
S1130430C6008A3019F08D3009F076C090912201FF
S1130440E92FF0E0E85EFE4F108280912A018130AE
S113045029F5943009F065C080911801853409F0BC
S113046060C080911901803509F05BC080911A0148
S11304708A3309F056C080911B01803308F451C0BF
S1130480833308F04EC0805380932C0181E0809325
S1130490290186E091E00E94DB0143C0823009F02B
S11304A040C0809118018335E1F580911A018A33A7
S11304B0C1F58091190140ED480F8153843058F003
S11304C030C0990F292F220F220F920F890F90ED20
S11304D0980F3F5F02C033E090E0E32FF0E0E85E66
S11304E0FE4F808120ED280F2A3058F3E42FF0E0EE
S11304F0EE5DFE4F90831F924F9380E191E09F93B6
S11305008F938E010F5F1F4F1F930F930E94F20270
S1130510C8010E94DB010F900F900F900F900F9075
S11305200F90109222010FC0E0912201E93048F4AB
S113053091E09E0F90932201F0E0E85EFE4F8083ED
S113054002C01092220164960FB6F894DEBF0FBE6B
S1130550CDBFDF91CF91FF91EF91BF91AF919F916B
S11305608F917F916F915F914F913F912F911F9147
S11305700F910F900FBE0F901F9018951092C50009
S113058087E68093C40088E98093C10086E0809365
S1130590C200089597FB072E16F4009407D077FD48
S11305A009D00E94DE0207FC05D03EF490958195A7
S11305B09F4F0895709561957F4F0895AA1BBB1BAB
S11305C051E107C0AA1FBB1FA617B70710F0A61B4F
S11305D0B70B881F991F5A95A9F780959095BC0170
S11305E0CD010895AEE0B0E0E8EFF2E00C94E4054C
S11305F00D891E8986E08C831A8309838FEF9FE718
S11306009E838D83AE01475E5F4F6F89788DCE01E7
S113061001960E941403EF81F885E00FF11F108208
S11306202E96E4E00C940006ABE0B0E0EAE1F3E0DF
S11306300C94D6056C017B018A01FC011782168299
S1130640838181FFCCC1CE0101963C01F6019381E7
S1130650F70193FD859193FF81917F01882309F42C
S1130660BAC1853239F493FD859193FF81917F015D
S1130670853229F4B60190E00E940B05E7CF912C56
S1130680212C312CFFE1F315D8F08B3279F038F4BA
S1130690803279F08332A1F4232D20611DC08D3284
S11306A061F0803369F4232D216016C0832D8260AC
S11306B0382EE32DE4603E2E2AC0F32DF8601DC0D1
S11306C037FC2DC020ED280F2A3040F08E32B9F4CB
S11306D036FC81C1232D2064322E19C036FE06C09B
S11306E08AE0989E200D1124922E11C0EAE02E9EDD
S11306F0200D1124222EF32DF0623F2E08C08C36DB
S113070021F4832D8068382E02C0883641F4F70125
S113071093FD859193FF81917F018111B3CF982F30
S11307209F7D9554933028F40C5F1F4F9FE399836A
S11307300DC0833631F0833771F0833509F059C029
S113074021C0F801808189830E5F1F4F8824839420
S1130750912C530113C02801F2E04F0E511CF801F3
S1130760A080B18036FE03C0692D70E002C06FEF37
S11307707FEFC5010E9400054C018201F32DFF7734
S11307803F2E16C0280122E0420E511CF801A08021
S1130790B18036FE03C0692D70E002C06FEF7FEFB9
S11307A0C5010E94F5044C01F32DF0683F2E82012F
S11307B033FC1BC0822D90E088169906B0F4B60174
S11307C080E290E00E940B052A94F4CFF50137FCF7
S11307D0859137FE81915F01B60190E00E940B057F
S11307E021102A9421E0821A91088114910471F74E
S11307F0E8C0843611F0893641F5F80137FE07C0A8
S113080060817181828193810C5F1F4F08C0608178
S11308107181072E000C880B990B0E5F1F4FF32D6F
S1130820FF763F2E97FF09C090958095709561954E
S11308307F4F8F4F9F4FF0683F2E2AE030E0A30197
S11308400E944705882E861845C0853731F4232D2C
S11308502F7EB22E2AE030E025C0932D997FB92E49
S11308608F36C1F018F4883579F0B5C0803719F0A7
S1130870883721F0B0C0E92FE061BE2EB4FE0DC070
S1130880FB2DF460BF2E09C034FE0AC0292F266058
S1130890B22E06C028E030E005C020E130E002C0FE
S11308A020E132E0F801B7FE07C0608171818281E6
S11308B093810C5F1F4F06C06081718180E090E0DE
S11308C00E5F1F4FA3010E944705882E8618FB2D3B
S11308D0FF773F2E36FE0DC0232D2E7FA22E8914C6
S11308E058F434FE0BC032FC09C0832D8E7EA82E32
S11308F005C0B82CA32C03C0B82C01C0B92CA4FE8D
S11309000FC0FE01E80DF11D8081803321F49A2D82
S1130910997EA92E09C0A2FE06C0B394B39404C064
S11309208A2D867809F0B394A3FC11C0A0FE06C0FA
S1130930B21488F4280C922C9B180EC0B21460F4E4
S1130940B60180E290E00E940B05B394F7CFB21495
S113095018F42B1802C0982C212CA4FE10C0B60148
S113096080E390E00E940B05A2FE17C0A1FC03C027
S113097088E790E002C088E590E0B6010CC08A2DBB
S1130980867859F0A1FE02C08BE201C080E2A7FC88
S11309908DE2B60190E00E940B05891438F4B6018B
S11309A080E390E00E940B059A94F7CF8A94F301B8
S11309B0E80DF11D8081B60190E00E940B058110C5
S11309C0F5CF222009F442CEB60180E290E00E94E5
S11309D00B052A94F6CFF6018681978102C08FEF2A
S11309E09FEF2B96E2E10C94F205FC010590615017
S11309F070400110D8F7809590958E0F9F1F089531
S1130A00FC016150704001900110D8F780959095D9
S1130A108E0F9F1F08950F931F93CF93DF93FB01B6
S1130A20238121FD03C08FEF9FEF2CC022FF16C04E
S1130A3046815781248135814217530744F4A081AC
S1130A40B1819D012F5F3F4F318320838C93268199
S1130A5037812F5F3F4F3783268314C08B01EC010E
S1130A60FB010084F185E02D0995892BE1F6D8017D
S1130A7016968D919C911797019617969C938E9339
S1130A801697CE01DF91CF911F910F910895FA012E
S1130A90AA27283051F1203181F1E8946F936E7FB9
S1130AA06E5F7F4F8F4F9F4FAF4FB1E03ED0B4E0AA
S1130AB03CD0670F781F891F9A1FA11D680F791FEB
S1130AC08A1F911DA11D6A0F711D811D911DA11DFC
S1130AD020D009F468943F912AE0269F112430190C
S1130AE0305D3193DEF6CF010895462F4770405DA7
S1130AF04193B3E00FD0C9F7F6CF462F4F70405D56
S1130B004A3318F0495D31FD4052419302D0A9F7B0
S1130B10EACFB4E0A6959795879577956795BA95AA
S1130B20C9F700976105710508959B01AC010A2E70
S1130B3006945795479537952795BA95C9F7620F47
S1130B40731F841F951FA01D0895F999FECF92BDB0
S1130B5081BDF89A992780B50895A8E1B0E042E0F4
S1130B6050E00C94C805262FF999FECF1FBA92BD08
S1130B7081BD20BD0FB6F894FA9AF99A0FBE01967A
S1130B8008950E94B305272F0C94B405DC01CB0112
S1130B90FC01F999FECF06C0F2BDE1BDF89A319689
S1130BA000B40D9241505040B8F708952F923F92EF
S1130BB04F925F926F927F928F929F92AF92BF9269
S1130BC0CF92DF92EF92FF920F931F93CF93DF9315
S1130BD0CDB7DEB7CA1BDB0B0FB6F894DEBF0FBE72
S1130BE0CDBF09942A88398848885F846E847D84BF
S1130BF08C849B84AA84B984C884DF80EE80FD80C1
S1130C000C811B81AA81B981CE0FD11D0FB6F89436
S1110C10DEBF0FBECDBFED010895F894FFCFF7
S1130C1E0500040002004550524F4D5F4F4B0A0031
S10B0C2E5325645F4F4B0A00DB
S9030000FC
