:100000000C9434000C9451000C9451000C94510049
:100010000C94AF010C9451000C9451000C945100BD
:100020000C9451000C9451000C9451000C9451000C
:100030000C9451000C9451000C9451000C945100FC
:100040000C9451000C9451000C94C2010C9451007A
:100050000C9451000C9451000C9451000C945100DC
:100060000C9451000C94510011241FBECFEFD8E026
:10007000DEBFCDBF11E0A0E0B1E0EEE9F5E002C0E7
:1000800005900D92AA30B107D9F721E0AAE0B1E0BE
:1000900001C01D92AA32B207E1F70E94AA010C9496
:1000A000CD020C94000080E680937C0087E880936A
:1000B0007A000895ECE7F0E09081907F8770892BBB
:1000C0008083EAE7F0E080818064808380917A0019
:1000D00086FDFCCF809179000895861720F048179F
:1000E00018F4842F0895862F08958AB180668AB9FE
:1000F00083EA84BD85E085BD08959C0194B1966036
:1001000094B982EA809380008DE1809381003093DE
:1001100087002093860008954FEF60E00E946D00F5
:100120002FE1829FC00111246FEF70E00E946E02E8
:1001300088E0860F08954FEF60E00E946D002FE089
:10014000829FC001112481589F4F6FEF70E00E9481
:100150006E02CB0140960895F89487E087B988B184
:10016000886088B9E8E6F0E0808182608083ECE610
:10017000F0E08081886080830E9453000E947500B7
:1001800088E391E00E947D000E94620278940895C5
:1001900087E00E945A000E949B0090938B008093FE
:1001A0008A0086E00E945A000E949B00909389007A
:1001B0008093880085E00E945A000E948C0087BDD1
:1001C00084E00E945A000E948C0088BD08956091CE
:1001D0008A0070918B0070932801609327018091B1
:1001E000880090918900909324018093230187B522
:1001F00080931D0188B58093220180911A0190910E
:100200001B010E94B802609123017091240180912A
:100210000401909105010E94B80260911D01809136
:100220000201909103010E94AA0260912201809133
:100230000001909101010E94AA020895CF93DF93DB
:1002400080911A0190911B010E94A402EC019093ED
:10025000200180931F0180910401909105010E946B
:10026000A402909326018093250180910201909130
:1002700003010E94A40280932901809100019091C2
:1002800001010E94A40280932101D0938B00C093AE
:100290008A00809125019091260190938900809396
:1002A00088008091290187BD8091210188BDDF915F
:1002B000CF91089580911E01813319F0823321F08E
:1002C00008950E94E70008950E941E010895CF93AB
:1002D000DF93C6E1D1E088810E949B0090938B0060
:1002E00080938A0089810E949B009093890080936B
:1002F00088008A810E948C0087BD8B810E948C00BF
:1003000088BDDF91CF91089580911C01813069F003
:1003100018F0823099F01BC088B1816088B988B12B
:10032000897F88B90E94C800089588B1826088B921
:1003300088B18A7F88B90E945A01089588B1846083
:1003400088B988B18C7F88B90E946701089510929E
:100350001C0108950E94AC000E948401FDCF1F92F1
:100360000F920FB60F9211248F93339905C080918D
:100370001C018F5F80931C018F910F900FBE0F9017
:100380001F9018951F920F920FB60F9211242F9362
:100390003F934F935F936F937F938F939F93AF930D
:1003A000BF93CF93EF93FF939091C600E091140118
:1003B000E73028F0109214011092130171C080915F
:1003C0001C018130A1F5E33018F5C1E0CE0FC093D8
:1003D0001401F0E0E55FFE4F9083EC2FF0E0E55F65
:1003E000FE4F1082C33071F443E050E066E071E0EC
:1003F0008BE091E00E949602892B21F481E08093AA
:1004000013014EC0C33009F04BC01092140148C014
:1004100080911301882309F443C090931E0181E069
:1004200080931501109214011092130139C082308B
:10043000B9F5E33038F581E08E0F80931401F0E0D8
:10044000E55FFE4F9083E82FF0E0E55FFE4F1082FE
:10045000833099F490910B01933579F490910C01CC
:100460009153943050F420910D012A3331F490933C
:100470000A0181E08093130113C0833089F4109244
:1004800014010EC080911301882351F0E0910A01FC
:10049000F0E0EA5EFE4F9083109214011092130177
:1004A000FF91EF91CF91BF91AF919F918F917F91EC
:1004B0006F915F914F913F912F910F900FBE0F90D1
:1004C0001F9018951092C50087E68093C40088E9B4
:1004D0008093C10086E08093C200089597FB072EA9
:1004E00016F4009407D077FD09D00E94820207FC21
:1004F00005D03EF4909581959F4F08957095619534
:100500007F4F0895AA1BBB1B51E107C0AA1FBB1F49
:10051000A617B70710F0A61BB70B881F991F5A958F
:10052000A9F780959095BC01CD010895FB01DC01F0
:100530004150504030F08D910190801919F4002005
:10054000B9F7881B990B0895A8E1B0E042E050E0AC
:100550000C94BF02262FF999FECF1FBA92BD81BD20
:1005600020BD0FB6F894FA9AF99A0FBE0196089535
:100570000E94AA02272F0C94AB02DC01CB01FC01E4
:10058000F999FECF06C0F2BDE1BDF89A319600B4EC
:0E0590000D9241505040B8F70895F894FFCFF7
:0A059E0005000400020045503A0079
:00000001FF
