:100000000C9434000C9451000C9451000C94510049
:100010000C94C1010C9451000C9451000C945100AB
:100020000C9451000C9451000C9451000C9451000C
:100030000C9451000C9451000C9451000C945100FC
:100040000C9451000C9451000C94D4010C94510068
:100050000C9451000C9451000C9451000C945100DC
:100060000C9451000C94510011241FBECFEFD8E026
:10007000DEBFCDBF11E0A0E0B1E0EEEAFBE002C0E0
:1000800005900D92A831B107D9F721E0A8E1B1E0C0
:1000900001C01D92A833B207E1F70E94AD010C9494
:1000A000D5050C94000080E680937C0087E880935F
:1000B0007A000895ECE7F0E09081907F8770892BBB
:1000C0008083EAE7F0E080818064808380917A0019
:1000D00086FDFCCF809179000895861720F048179F
:1000E00018F4842F0895862F08958AB180668AB9FE
:1000F00083EA84BD85E085BD08959C0194B1966036
:1001000094B982EA809380008DE1809381003093DE
:1001100087002093860008954FEF60E00E946D00F5
:100120002FE1829FC00111246FEF70E00E949A02BC
:1001300088E0860F08954FEF60E00E946D002FE089
:10014000829FC001112481589F4F6FEF70E00E9481
:100150009A02CB0140960895F89487E087B988B158
:10016000886088B9E8E6F0E0808182608083ECE610
:10017000F0E08081886080830E9453000E947500B7
:1001800088E391E00E947D000E948E027894089599
:1001900087E00E945A000E949B0090938B008093FE
:1001A0008A0086E00E945A000E949B00909389007A
:1001B0008093880085E00E945A000E948C0087BDD1
:1001C00084E00E945A000E948C0088BD08956091CE
:1001D0008A0070918B007093360160933501809195
:1001E000880090918900909332018093310187B506
:1001F00080932B0188B580933001809127019091E5
:1002000028010E948905609131017091320180912D
:100210000401909105010E94890560912B01809154
:100220000201909103010E947B0560913001809151
:100230000001909101010E947B050895CF93DF9307
:1002400080912701909128010E947505EC019093FF
:100250002E0180932D0180910401909105010E944F
:100260007505909334018093330180910201909140
:1002700003010E94750580933701809100019091E0
:1002800001010E94750580932F01D0938B00C093CC
:100290008A0080913301909134019093890080937A
:1002A00088008091370187BD80912F0188BDDF9143
:1002B000CF91089580912C01813019F0823021F086
:1002C00006C00E94E70008950E941E010895109242
:1002D0002C010895CF93DF93C3E2D1E088810E947F
:1002E0009B0090938B0080938A0089810E949B00E1
:1002F00090938900809388008A810E948C0087BD3A
:100300008B810E948C0088BDDF91CF9108958091F0
:100310002A01813069F018F0823099F01BC088B151
:10032000816088B988B1897F88B90E94C800089522
:1003300088B1826088B988B18A7F88B90E945A01E1
:10034000089588B1846088B988B18C7F88B90E948B
:100350006A01089510922A0108950E94AC000E943B
:100360008701FDCFFC01892B41F408959091C000D5
:1003700095FFFCCF8093C600319680818111F6CF26
:1003800008951F920F920FB60F9211248F933399F5
:1003900005C080912A018F5F80932A018F910F9071
:1003A0000FBE0F901F9018951F920F920FB60F92CD
:1003B00011240F931F932F933F934F935F936F934A
:1003C0007F938F939F93AF93BF93EF93FF93CF93BD
:1003D000DF93CDB7DEB76497DEBFCDBF8091C60097
:1003E0008A3019F08D3009F06FC0E0912201F0E001
:1003F000E85EFE4F108280912A018130F9F48091ED
:100400001801853409F05DC080911901803509F02B
:1004100058C080911A018A3309F053C080911B01A2
:100420008053833008F04DC080932C0181E080938D
:10043000290186E091E00E94B20143C0823009F0B8
:1004400040C0809118018335E1F580911A018A330B
:10045000C1F58091190140ED480F8153843058F067
:1004600030C0990F292F220F220F920F890F90ED84
:10047000980F3F5F02C033E090E0E32FF0E0E85ECA
:10048000FE4F808120ED280F2A3058F3E42FF0E052
:10049000EE5DFE4F90831F924F9380E191E09F931A
:1004A0008F938E010F5F1F4F1F930F930E94C20205
:1004B000C8010E94B2010F900F900F900F900F9003
:1004C0000F90109222010FC0E0912201E93048F410
:1004D00091E09E0F90932201F0E0E85EFE4F808352
:1004E00002C01092220164960FB6F894DEBF0FBED0
:1004F000CDBFDF91CF91FF91EF91BF91AF919F91D0
:100500008F917F916F915F914F913F912F911F91AB
:100510000F910F900FBE0F901F9018951092C5006D
:1005200087E68093C40088E98093C10086E08093C9
:10053000C200089597FB072E16F4009407D077FDAC
:1005400009D00E94AE0207FC05D03EF4909581953B
:100550009F4F0895709561957F4F0895AA1BBB1B0F
:1005600051E107C0AA1FBB1FA617B70710F0A61BB3
:10057000B70B881F991F5A95A9F780959095BC01D4
:10058000CD010895AEE0B0E0E8ECF2E00C94AC05EB
:100590000D891E8986E08C831A8309838FEF9FE77C
:1005A0009E838D83AE01475E5F4F6F89788DCE014C
:1005B00001960E94E402EF81F885E00FF11F10829E
:1005C0002E96E4E00C94C805ABE0B0E0EAEEF2E071
:1005D0000C949E056C017B018A01FC011782168236
:1005E000838181FFCCC1CE0101963C01F60193814C
:1005F000F70193FD859193FF81917F01882309F491
:10060000BAC1853239F493FD859193FF81917F01C1
:10061000853229F4B60190E00E94DB04E7CF912CEB
:10062000212C312CFFE1F315D8F08B3279F038F41E
:10063000803279F08332A1F4232D20611DC08D32E8
:1006400061F0803369F4232D216016C0832D826010
:10065000382EE32DE4603E2E2AC0F32DF8601DC035
:1006600037FC2DC020ED280F2A3040F08E32B9F42F
:1006700036FC81C1232D2064322E19C036FE06C0FF
:100680008AE0989E200D1124922E11C0EAE02E9E41
:10069000200D1124222EF32DF0623F2E08C08C363F
:1006A00021F4832D8068382E02C0883641F4F7018A
:1006B00093FD859193FF81917F018111B3CF982F95
:1006C0009F7D9554933028F40C5F1F4F9FE39983CF
:1006D0000DC0833631F0833771F0833509F059C08E
:1006E00021C0F801808189830E5F1F4F8824839485
:1006F000912C530113C02801F2E04F0E511CF80158
:10070000A080B18036FE03C0692D70E002C06FEF9B
:100710007FEFC5010E94D0044C018201F32DFF77C9
:100720003F2E16C0280122E0420E511CF801A08085
:10073000B18036FE03C0692D70E002C06FEF7FEF1D
:10074000C5010E94C5044C01F32DF0683F2E8201C3
:1007500033FC1BC0822D90E088169906B0F4B601D8
:1007600080E290E00E94DB042A94F4CFF50137FC8C
:10077000859137FE81915F01B60190E00E94DB0414
:1007800021102A9421E0821A91088114910471F7B2
:10079000E8C0843611F0893641F5F80137FE07C00C
:1007A00060817181828193810C5F1F4F08C06081DD
:1007B0007181072E000C880B990B0E5F1F4FF32DD4
:1007C000FF763F2E97FF09C09095809570956195B3
:1007D0007F4F8F4F9F4FF0683F2E2AE030E0A301FC
:1007E0000E941705882E861845C0853731F4232DC1
:1007F0002F7EB22E2AE030E025C0932D997FB92EAE
:100800008F36C1F018F4883579F0B5C0803719F00B
:10081000883721F0B0C0E92FE061BE2EB4FE0DC0D4
:10082000FB2DF460BF2E09C034FE0AC0292F2660BC
:10083000B22E06C028E030E005C020E130E002C062
:1008400020E132E0F801B7FE07C06081718182814A
:1008500093810C5F1F4F06C06081718180E090E042
:100860000E5F1F4FA3010E941705882E8618FB2DCF
:10087000FF773F2E36FE0DC0232D2E7FA22E89142A
:1008800058F434FE0BC032FC09C0832D8E7EA82E96
:1008900005C0B82CA32C03C0B82C01C0B92CA4FEF1
:1008A0000FC0FE01E80DF11D8081803321F49A2DE7
:1008B000997EA92E09C0A2FE06C0B394B39404C0C9
:1008C0008A2D867809F0B394A3FC11C0A0FE06C05F
:1008D000B21488F4280C922C9B180EC0B21460F449
:1008E000B60180E290E00E94DB04B394F7CFB2142B
:1008F00018F42B1802C0982C212CA4FE10C0B601AD
:1009000080E390E00E94DB04A2FE17C0A1FC03C0BC
:1009100088E790E002C088E590E0B6010CC08A2D1F
:10092000867859F0A1FE02C08BE201C080E2A7FCEC
:100930008DE2B60190E00E94DB04891438F4B60120
:1009400080E390E00E94DB049A94F7CF8A94F3014D
:10095000E80DF11D8081B60190E00E94DB0481105A
:10096000F5CF222009F442CEB60180E290E00E9449
:10097000DB042A94F6CFF6018681978102C08FEFBF
:100980009FEF2B96E2E10C94BA05FC0105906150B3
:1009900070400110D8F7809590958E0F9F1F089595
:1009A000FC016150704001900110D8F7809590953E
:1009B0008E0F9F1F08950F931F93CF93DF93FB011B
:1009C000238121FD03C08FEF9FEF2CC022FF16C0B3
:1009D00046815781248135814217530744F4A08111
:1009E000B1819D012F5F3F4F318320838C932681FE
:1009F00037812F5F3F4F3783268314C08B01EC0173
:100A0000FB010084F185E02D0995892BE1F6D801E1
:100A100016968D919C911797019617969C938E939D
:100A20001697CE01DF91CF911F910F910895FA0192
:100A3000AA27283051F1203181F1E8946F936E7F1D
:100A40006E5F7F4F8F4F9F4FAF4FB1E03ED0B4E00E
:100A50003CD0670F781F891F9A1FA11D680F791F4F
:100A60008A1F911DA11D6A0F711D811D911DA11D60
:100A700020D009F468943F912AE0269F1124301970
:100A8000305D3193DEF6CF010895462F4770405D0B
:100A90004193B3E00FD0C9F7F6CF462F4F70405DBA
:100AA0004A3318F0495D31FD4052419302D0A9F715
:100AB000EACFB4E0A6959795879577956795BA950F
:100AC000C9F700976105710508959B01AC010A2ED5
:100AD00006945795479537952795BA95C9F7620FAC
:100AE000731F841F951FA01D0895A8E1B0E042E088
:100AF00050E00C949005262FF999FECF1FBA92BDB5
:100B000081BD20BD0FB6F894FA9AF99A0FBE0196EE
:100B100008950E947B05272F0C947C05DC01CB01F6
:100B2000FC01F999FECF06C0F2BDE1BDF89A3196FD
:100B300000B40D9241505040B8F708952F923F9263
:100B40004F925F926F927F928F929F92AF92BF92DD
:100B5000CF92DF92EF92FF920F931F93CF93DF9389
:100B6000CDB7DEB7CA1BDB0B0FB6F894DEBF0FBEE6
:100B7000CDBF09942A88398848885F846E847D8433
:100B80008C849B84AA84B984C884DF80EE80FD8035
:100B90000C811B81AA81B981CE0FD11D0FB6F894AB
:0E0BA000DEBF0FBECDBFED010895F894FFCF6C
:100BAE000500040002004550524F4D5F4F4B0A00A6
:080BBE005325645F4F4B0A0050
:00000001FF
