:020000020000FC
:0200000025C019
:0200100048C0E6
:1000400043C03F065B4F666D7D077F6F08E00EBFC4
:100050000FEF0DBFF89400E00093C1000093C200C1
:1000600000E004B90FEF05B90FEF0AB900E007B9D6
:1000700040E044BD45E045BD41E040936E0033277C
:1000800003E000936B0001E00093680023B100E0FF
:10009000102F789418B9F0E0E2E4E50F44914BB9E1
:1000A000F9CF0F930FB70F9303B10227037041F0FD
:1000B000189901C01395199901C01A951F7023B1A1
:1000C0000F910FBF0F9118954F934FB74F933395E3
:1000D000323329F4332753955A3009F455274F9179
:0600E0004FBF4F9118957F
:00000001FF
